{
  "_format": "hh-sol-artifact-1",
  "contractName": "Blotto2",
  "sourceName": "contracts/Blotto2.sol",
  "abi": [
    {
      "inputs": [
        {
          "internalType": "address",
          "name": "_tokenAddress",
          "type": "address"
        },
        {
          "internalType": "uint256",
          "name": "entryMinimum",
          "type": "uint256"
        },
        {
          "internalType": "uint256",
          "name": "interval",
          "type": "uint256"
        },
        {
          "internalType": "address",
          "name": "vrfCoordinatorV2",
          "type": "address"
        },
        {
          "internalType": "bytes32",
          "name": "gasLane",
          "type": "bytes32"
        },
        {
          "internalType": "uint64",
          "name": "subscription_id",
          "type": "uint64"
        },
        {
          "internalType": "uint32",
          "name": "callbackGasLimit",
          "type": "uint32"
        }
      ],
      "stateMutability": "nonpayable",
      "type": "constructor"
    },
    {
      "anonymous": false,
      "inputs": [
        {
          "indexed": true,
          "internalType": "uint16",
          "name": "s_lottery_id",
          "type": "uint16"
        },
        {
          "indexed": true,
          "internalType": "address",
          "name": "from",
          "type": "address"
        },
        {
          "indexed": false,
          "internalType": "uint256",
          "name": "amount",
          "type": "uint256"
        }
      ],
      "name": "BoughtTicket",
      "type": "event"
    },
    {
      "anonymous": false,
      "inputs": [
        {
          "indexed": true,
          "internalType": "address",
          "name": "previousOwner",
          "type": "address"
        },
        {
          "indexed": true,
          "internalType": "address",
          "name": "newOwner",
          "type": "address"
        }
      ],
      "name": "OwnershipTransferred",
      "type": "event"
    },
    {
      "anonymous": false,
      "inputs": [
        {
          "indexed": true,
          "internalType": "uint16",
          "name": "s_lottery_id",
          "type": "uint16"
        },
        {
          "indexed": true,
          "internalType": "address",
          "name": "winner",
          "type": "address"
        }
      ],
      "name": "WinnerPicked",
      "type": "event"
    },
    {
      "inputs": [
        {
          "internalType": "uint256",
          "name": "tokenAmount",
          "type": "uint256"
        }
      ],
      "name": "approveTokens",
      "outputs": [],
      "stateMutability": "nonpayable",
      "type": "function"
    },
    {
      "inputs": [],
      "name": "blotToken",
      "outputs": [
        {
          "internalType": "contract BlottoToken",
          "name": "",
          "type": "address"
        }
      ],
      "stateMutability": "view",
      "type": "function"
    },
    {
      "inputs": [],
      "name": "getBlotTokenAddress",
      "outputs": [
        {
          "internalType": "address",
          "name": "",
          "type": "address"
        }
      ],
      "stateMutability": "view",
      "type": "function"
    },
    {
      "inputs": [],
      "name": "getTokenAllowance",
      "outputs": [
        {
          "internalType": "uint256",
          "name": "",
          "type": "uint256"
        }
      ],
      "stateMutability": "view",
      "type": "function"
    },
    {
      "inputs": [],
      "name": "i_callbackGasLimit",
      "outputs": [
        {
          "internalType": "uint32",
          "name": "",
          "type": "uint32"
        }
      ],
      "stateMutability": "view",
      "type": "function"
    },
    {
      "inputs": [],
      "name": "i_entryMinimum",
      "outputs": [
        {
          "internalType": "uint256",
          "name": "",
          "type": "uint256"
        }
      ],
      "stateMutability": "view",
      "type": "function"
    },
    {
      "inputs": [],
      "name": "i_gasLane",
      "outputs": [
        {
          "internalType": "bytes32",
          "name": "",
          "type": "bytes32"
        }
      ],
      "stateMutability": "view",
      "type": "function"
    },
    {
      "inputs": [],
      "name": "i_interval",
      "outputs": [
        {
          "internalType": "uint256",
          "name": "",
          "type": "uint256"
        }
      ],
      "stateMutability": "view",
      "type": "function"
    },
    {
      "inputs": [],
      "name": "i_subscription_id",
      "outputs": [
        {
          "internalType": "uint64",
          "name": "",
          "type": "uint64"
        }
      ],
      "stateMutability": "view",
      "type": "function"
    },
    {
      "inputs": [],
      "name": "owner",
      "outputs": [
        {
          "internalType": "address",
          "name": "",
          "type": "address"
        }
      ],
      "stateMutability": "view",
      "type": "function"
    },
    {
      "inputs": [],
      "name": "renounceOwnership",
      "outputs": [],
      "stateMutability": "nonpayable",
      "type": "function"
    },
    {
      "inputs": [],
      "name": "s_lotteryStateOpen",
      "outputs": [
        {
          "internalType": "bool",
          "name": "",
          "type": "bool"
        }
      ],
      "stateMutability": "view",
      "type": "function"
    },
    {
      "inputs": [
        {
          "internalType": "address",
          "name": "newOwner",
          "type": "address"
        }
      ],
      "name": "transferOwnership",
      "outputs": [],
      "stateMutability": "nonpayable",
      "type": "function"
    }
  ],
  "bytecode": "0x6101206040523480156200001257600080fd5b50604051620017d3380380620017d38339818101604052810190620000389190620002c2565b620000586200004c6200018360201b60201c565b6200018b60201b60201c565b86600260006101000a81548173ffffffffffffffffffffffffffffffffffffffff021916908373ffffffffffffffffffffffffffffffffffffffff16021790555085608081815250508460a081815250508260c081815250508167ffffffffffffffff1660e08167ffffffffffffffff1660c01b815250508063ffffffff166101008163ffffffff1660e01b81525050600073ffffffffffffffffffffffffffffffffffffffff168773ffffffffffffffffffffffffffffffffffffffff1614156200015b576040517f08c379a000000000000000000000000000000000000000000000000000000000815260040162000152906200039c565b60405180910390fd5b6001600260146101000a81548160ff0219169083151502179055505050505050505062000511565b600033905090565b60008060009054906101000a900473ffffffffffffffffffffffffffffffffffffffff169050816000806101000a81548173ffffffffffffffffffffffffffffffffffffffff021916908373ffffffffffffffffffffffffffffffffffffffff1602179055508173ffffffffffffffffffffffffffffffffffffffff168173ffffffffffffffffffffffffffffffffffffffff167f8be0079c531659141344cd1fd0a4f28419497f9722a3daafe3b4186f6b6457e060405160405180910390a35050565b60008151905062000260816200048f565b92915050565b6000815190506200027781620004a9565b92915050565b6000815190506200028e81620004c3565b92915050565b600081519050620002a581620004dd565b92915050565b600081519050620002bc81620004f7565b92915050565b600080600080600080600060e0888a031215620002e457620002e36200043b565b5b6000620002f48a828b016200024f565b9750506020620003078a828b016200027d565b96505060406200031a8a828b016200027d565b95505060606200032d8a828b016200024f565b9450506080620003408a828b0162000266565b93505060a0620003538a828b01620002ab565b92505060c0620003668a828b0162000294565b91505092959891949750929550565b600062000384602183620003be565b9150620003918262000440565b604082019050919050565b60006020820190508181036000830152620003b78162000375565b9050919050565b600082825260208201905092915050565b6000620003dc82620003ed565b9050919050565b6000819050919050565b600073ffffffffffffffffffffffffffffffffffffffff82169050919050565b6000819050919050565b600063ffffffff82169050919050565b600067ffffffffffffffff82169050919050565b600080fd5b7f546f6b656e20416464726573732063616e6e6f7420626520616464726573732060008201527f3000000000000000000000000000000000000000000000000000000000000000602082015250565b6200049a81620003cf565b8114620004a657600080fd5b50565b620004b481620003e3565b8114620004c057600080fd5b50565b620004ce816200040d565b8114620004da57600080fd5b50565b620004e88162000417565b8114620004f457600080fd5b50565b620005028162000427565b81146200050e57600080fd5b50565b60805160a05160c05160e05160c01c6101005160e01c6112776200055c600039600061059e0152600061057a01526000610556015260006104ab0152600061050901526112776000f3fe608060405234801561001057600080fd5b50600436106100cf5760003560e01c80638da5cb5b1161008c578063d757d02711610066578063d757d027146101cc578063e2de5c4a146101ea578063e903c2a814610208578063f2fde38b14610226576100cf565b80638da5cb5b146101725780638e879c8a14610190578063a4b3f1a7146101ae576100cf565b806302f0ca1c146100d4578063220646ce146100f25780636919207d1461010e5780637054d18c1461012c578063715018a61461014a5780637c5900ad14610154575b600080fd5b6100dc610242565b6040516100e99190610eca565b60405180910390f35b61010c60048036038101906101079190610cf8565b610255565b005b6101166104a9565b604051610123919061100b565b60405180910390f35b6101346104cd565b6040516101419190610f00565b60405180910390f35b6101526104f3565b005b61015c610507565b604051610169919061100b565b60405180910390f35b61017a61052b565b6040516101879190610e5d565b60405180910390f35b610198610554565b6040516101a59190610ee5565b60405180910390f35b6101b6610578565b6040516101c39190611041565b60405180910390f35b6101d461059c565b6040516101e19190611026565b60405180910390f35b6101f26105c0565b6040516101ff919061100b565b60405180910390f35b6102106107bc565b60405161021d9190610e5d565b60405180910390f35b610240600480360381019061023b9190610c9e565b6107e6565b005b600260149054906101000a900460ff1681565b6000600260009054906101000a900473ffffffffffffffffffffffffffffffffffffffff1673ffffffffffffffffffffffffffffffffffffffff1663095ea7b330846040518363ffffffff1660e01b81526004016102b4929190610ea1565b602060405180830381600087803b1580156102ce57600080fd5b505af11580156102e2573d6000803e3d6000fd5b505050506040513d601f19601f820116820180604052508101906103069190610ccb565b905080610348576040517f08c379a000000000000000000000000000000000000000000000000000000000815260040161033f90610fcb565b60405180910390fd5b6103876040518060400160405280600f81526020017f6d73672e73656e646572203d20257300000000000000000000000000000000008152503361086a565b6103c66040518060400160405280601281526020017f61646472657373287468697329203d20257300000000000000000000000000008152503061086a565b6104056040518060400160405280601081526020017f746f6b656e416d6f756e74203d2025730000000000000000000000000000000081525083610906565b6104666040518060400160405280600e81526020017f626c6f74546f6b656e203d202573000000000000000000000000000000000000815250600260009054906101000a900473ffffffffffffffffffffffffffffffffffffffff1661086a565b6104a56040518060400160405280600d81526020017f617070726f766564203d20257300000000000000000000000000000000000000815250826109a2565b5050565b7f000000000000000000000000000000000000000000000000000000000000000081565b600260009054906101000a900473ffffffffffffffffffffffffffffffffffffffff1681565b6104fb610a3e565b6105056000610abc565b565b7f000000000000000000000000000000000000000000000000000000000000000081565b60008060009054906101000a900473ffffffffffffffffffffffffffffffffffffffff16905090565b7f000000000000000000000000000000000000000000000000000000000000000081565b7f000000000000000000000000000000000000000000000000000000000000000081565b7f000000000000000000000000000000000000000000000000000000000000000081565b60006106086040518060400160405280601181526020017f5f6d736753656e6465722829203d202573000000000000000000000000000000815250610603610b80565b61086a565b6106476040518060400160405280601281526020017f61646472657373287468697329203d20257300000000000000000000000000008152503061086a565b610703600260009054906101000a900473ffffffffffffffffffffffffffffffffffffffff1673ffffffffffffffffffffffffffffffffffffffff1663dd62ed3e610690610b80565b306040518363ffffffff1660e01b81526004016106ae929190610e78565b60206040518083038186803b1580156106c657600080fd5b505afa1580156106da573d6000803e3d6000fd5b505050506040513d601f19601f820116820180604052508101906106fe9190610d25565b610b88565b600260009054906101000a900473ffffffffffffffffffffffffffffffffffffffff1673ffffffffffffffffffffffffffffffffffffffff1663dd62ed3e610749610b80565b306040518363ffffffff1660e01b8152600401610767929190610e78565b60206040518083038186803b15801561077f57600080fd5b505afa158015610793573d6000803e3d6000fd5b505050506040513d601f19601f820116820180604052508101906107b79190610d25565b905090565b6000600260009054906101000a900473ffffffffffffffffffffffffffffffffffffffff16905090565b6107ee610a3e565b600073ffffffffffffffffffffffffffffffffffffffff168173ffffffffffffffffffffffffffffffffffffffff16141561085e576040517f08c379a000000000000000000000000000000000000000000000000000000000815260040161085590610fab565b60405180910390fd5b61086781610abc565b50565b6109028282604051602401610880929190610f1b565b6040516020818303038152906040527f319af333000000000000000000000000000000000000000000000000000000007bffffffffffffffffffffffffffffffffffffffffffffffffffffffff19166020820180517bffffffffffffffffffffffffffffffffffffffffffffffffffffffff8381831617835250505050610c21565b5050565b61099e828260405160240161091c929190610f7b565b6040516020818303038152906040527fb60e72cc000000000000000000000000000000000000000000000000000000007bffffffffffffffffffffffffffffffffffffffffffffffffffffffff19166020820180517bffffffffffffffffffffffffffffffffffffffffffffffffffffffff8381831617835250505050610c21565b5050565b610a3a82826040516024016109b8929190610f4b565b6040516020818303038152906040527fc3b55635000000000000000000000000000000000000000000000000000000007bffffffffffffffffffffffffffffffffffffffffffffffffffffffff19166020820180517bffffffffffffffffffffffffffffffffffffffffffffffffffffffff8381831617835250505050610c21565b5050565b610a46610b80565b73ffffffffffffffffffffffffffffffffffffffff16610a6461052b565b73ffffffffffffffffffffffffffffffffffffffff1614610aba576040517f08c379a0000000000000000000000000000000000000000000000000000000008152600401610ab190610feb565b60405180910390fd5b565b60008060009054906101000a900473ffffffffffffffffffffffffffffffffffffffff169050816000806101000a81548173ffffffffffffffffffffffffffffffffffffffff021916908373ffffffffffffffffffffffffffffffffffffffff1602179055508173ffffffffffffffffffffffffffffffffffffffff168173ffffffffffffffffffffffffffffffffffffffff167f8be0079c531659141344cd1fd0a4f28419497f9722a3daafe3b4186f6b6457e060405160405180910390a35050565b600033905090565b610c1e81604051602401610b9c919061100b565b6040516020818303038152906040527ff82c50f1000000000000000000000000000000000000000000000000000000007bffffffffffffffffffffffffffffffffffffffffffffffffffffffff19166020820180517bffffffffffffffffffffffffffffffffffffffffffffffffffffffff8381831617835250505050610c21565b50565b60008151905060006a636f6e736f6c652e6c6f679050602083016000808483855afa5050505050565b600081359050610c59816111fc565b92915050565b600081519050610c6e81611213565b92915050565b600081359050610c838161122a565b92915050565b600081519050610c988161122a565b92915050565b600060208284031215610cb457610cb3611145565b5b6000610cc284828501610c4a565b91505092915050565b600060208284031215610ce157610ce0611145565b5b6000610cef84828501610c5f565b91505092915050565b600060208284031215610d0e57610d0d611145565b5b6000610d1c84828501610c74565b91505092915050565b600060208284031215610d3b57610d3a611145565b5b6000610d4984828501610c89565b91505092915050565b610d5b81611078565b82525050565b610d6a8161108a565b82525050565b610d7981611096565b82525050565b610d88816110ee565b82525050565b6000610d998261105c565b610da38185611067565b9350610db3818560208601611112565b610dbc8161114a565b840191505092915050565b6000610dd4602683611067565b9150610ddf8261115b565b604082019050919050565b6000610df7600e83611067565b9150610e02826111aa565b602082019050919050565b6000610e1a602083611067565b9150610e25826111d3565b602082019050919050565b610e39816110c0565b82525050565b610e48816110ca565b82525050565b610e57816110da565b82525050565b6000602082019050610e726000830184610d52565b92915050565b6000604082019050610e8d6000830185610d52565b610e9a6020830184610d52565b9392505050565b6000604082019050610eb66000830185610d52565b610ec36020830184610e30565b9392505050565b6000602082019050610edf6000830184610d61565b92915050565b6000602082019050610efa6000830184610d70565b92915050565b6000602082019050610f156000830184610d7f565b92915050565b60006040820190508181036000830152610f358185610d8e565b9050610f446020830184610d52565b9392505050565b60006040820190508181036000830152610f658185610d8e565b9050610f746020830184610d61565b9392505050565b60006040820190508181036000830152610f958185610d8e565b9050610fa46020830184610e30565b9392505050565b60006020820190508181036000830152610fc481610dc7565b9050919050565b60006020820190508181036000830152610fe481610dea565b9050919050565b6000602082019050818103600083015261100481610e0d565b9050919050565b60006020820190506110206000830184610e30565b92915050565b600060208201905061103b6000830184610e3f565b92915050565b60006020820190506110566000830184610e4e565b92915050565b600081519050919050565b600082825260208201905092915050565b6000611083826110a0565b9050919050565b60008115159050919050565b6000819050919050565b600073ffffffffffffffffffffffffffffffffffffffff82169050919050565b6000819050919050565b600063ffffffff82169050919050565b600067ffffffffffffffff82169050919050565b60006110f982611100565b9050919050565b600061110b826110a0565b9050919050565b60005b83811015611130578082015181840152602081019050611115565b8381111561113f576000848401525b50505050565b600080fd5b6000601f19601f8301169050919050565b7f4f776e61626c653a206e6577206f776e657220697320746865207a65726f206160008201527f6464726573730000000000000000000000000000000000000000000000000000602082015250565b7f617070726f7665206661696c6564000000000000000000000000000000000000600082015250565b7f4f776e61626c653a2063616c6c6572206973206e6f7420746865206f776e6572600082015250565b61120581611078565b811461121057600080fd5b50565b61121c8161108a565b811461122757600080fd5b50565b611233816110c0565b811461123e57600080fd5b5056fea2646970667358221220b22cfcecbc2da7d2150d5c910b6debab0f91ca1cd02dd1ebbefa947fc18ba25c64736f6c63430008050033",
  "linkReferences": {},
  "deployedLinkReferences": {}
}